:020000040800F2
:1000000000500020352C0008BD2B0008BF2B000835
:10001000C12B0008C32B0008C52B000800000000FE
:10002000000000000000000000000000C72B0008D6
:10003000C92B000800000000CB2B0008CD2B0008C6
:100040007D2C00087D2C00087D2C00087D2C0008EC
:100050007D2C00087D2C00087D2C00087D2C0008DC
:100060007D2C00087D2C00087D2C0008D92B000871
:100070007D2C00087D2C00087D2C00087D2C0008BC
:100080007D2C00087D2C00087D2C00087D2C0008AC
:100090007D2C00087D2C00087D2C00087D2C00089C
:1000A0007D2C00087D2C00087D2C00087D2C00088C
:1000B0007D2C00087D2C00087D2C00087D2C00087C
:1000C0007D2C00087D2C00087D2C00087D2C00086C
:1000D0007D2C00087D2C00087D2C00087D2C00085C
:1000E0007D2C00087D2C00087D2C000800000000FD
:1000F0000000000000000000000000000000000000
:0C01000000000000000000005FF808F1A3
:1001100010B5054C237833B9044B13B10448AFF341
:1001200000800123237010BD0C000020000000009F
:10013000C82C000808B5034B1BB103490348AFF3B3
:10014000008008BD0000000010000020C82C00083E
:1001500081F0004102E000BF83F0004330B54FEA78
:1001600041044FEA430594EA050F08BF90EA020FE5
:100170001FBF54EA000C55EA020C7FEA645C7FEA78
:10018000655C00F0E2804FEA5454D4EB5555B8BF9B
:100190006D420CDD2C4480EA020281EA030382EA0C
:1001A000000083EA010180EA020281EA0303362D9E
:1001B00088BF30BD11F0004F4FEA01314FF4801C71
:1001C0004CEA113102D0404261EB410113F0004F83
:1001D0004FEA03334CEA133302D0524263EB43033A
:1001E00094EA050F00F0A780A4F10104D5F1200ED8
:1001F0000DDB02FA0EFC22FA05F2801841F1000133
:1002000003FA0EF2801843FA05F359410EE0A5F106
:1002100020050EF1200E012A03FA0EFC28BF4CF037
:10022000020C43FA05F3C01851EBE37101F00045ED
:1002300007D54FF0000EDCF1000C7EEB00006EEBFA
:100240000101B1F5801F1BD3B1F5001F0CD3490884
:100250005FEA30004FEA3C0C04F101044FEA4452DB
:1002600012F5800F80F09A80BCF1004F08BF5FEA62
:10027000500C50F1000041EB045141EA050130BD42
:100280005FEA4C0C404141EB010111F4801FA4F1E5
:100290000104E9D191F0000F04BF01460020B1FA3A
:1002A00081F308BF2033A3F10B03B3F120020CDA72
:1002B0000C3208DD02F1140CC2F10C0201FA0CF050
:1002C00021FA02F10CE002F11402D8BFC2F1200CB5
:1002D00001FA02F120FA0CFCDCBF41EA0C0190406B
:1002E000E41AA2BF01EB0451294330BD6FEA0404B4
:1002F0001F3C1CDA0C340EDC04F11404C4F120029F
:1003000020FA04F001FA02F340EA030021FA04F3B0
:1003100045EA030130BDC4F10C04C4F1200220FA07
:1003200002F001FA04F340EA0300294630BD21FA45
:1003300004F0294630BD94F0000F83F4801306BF0B
:1003400081F480110134013D4EE77FEA645C18BFFF
:100350007FEA655C29D094EA050F08BF90EA020F96
:1003600005D054EA000C04BF1946104630BD91EA8E
:10037000030F1EBF0021002030BD5FEA545C05D191
:100380004000494128BF41F0004130BD14F58004D0
:100390003CBF01F5801130BD01F0004545F0FE4144
:1003A00041F470014FF0000030BD7FEA645C1ABF79
:1003B000194610467FEA655C1CBF0B46024650EAB0
:1003C000013406BF52EA033591EA030F41F40021DC
:1003D00030BD00BF90F0000F04BF0021704730B562
:1003E0004FF4806404F132044FF000054FF0000137
:1003F00050E700BF90F0000F04BF0021704730B5F8
:100400004FF4806404F1320410F0004548BF4042CC
:100410004FF000013EE700BF42004FEAE2014FEA21
:1004200031014FEA02701FBF12F07F4393F07F4FFC
:1004300081F06051704732F07F4208BF704793F0FF
:100440007F4F04BF41F40021704730B54FF4607412
:1004500001F0004521F000411CE700BF50EA010215
:1004600008BF704730B54FF000050AE050EA0102BE
:1004700008BF704730B511F0004502D5404261EB2E
:1004800041014FF4806404F132045FEA915C3FF46F
:10049000D8AE4FF003025FEADC0C18BF03325FEA0C
:1004A000DC0C18BF033202EBDC02C2F1200300FABD
:1004B00003FC20FA02F001FA03FE40EA0E0021FAE2
:1004C00002F11444BDE600BF70B54FF0FF0C4CF4D0
:1004D000E06C1CEA11541DBF1CEA135594EA0C0F82
:1004E00095EA0C0F00F0DEF82C4481EA030621EABD
:1004F0004C5123EA4C5350EA013518BF52EA0335F8
:1005000041F4801143F4801338D0A0FB02CE4FF0A9
:100510000005E1FB02E506F00042E0FB03E54FF0D9
:100520000006E1FB03569CF0000F18BF4EF0010ED1
:10053000A4F1FF04B6F5007F64F5407404D25FEACD
:100540004E0E6D4146EB060642EAC62141EA555180
:100550004FEAC52040EA5E504FEACE2EB4F1FD0CC2
:1005600088BFBCF5E06F1ED8BEF1004F08BF5FEA40
:10057000500E50F1000041EB045170BD06F00046F2
:1005800046EA010140EA020081EA0301B4EB5C049F
:10059000C2BFD4EB0C0541EA045170BD41F4801197
:1005A0004FF0000E013C00F3AB8014F1360FDEBFBC
:1005B000002001F0004170BDC4F10004203C35DA98
:1005C0000C341BDC04F11404C4F1200500FA05F31B
:1005D00020FA04F001FA05F240EA020001F00042BC
:1005E00021F0004110EBD37021FA04F642EB060132
:1005F0005EEA430E08BF20EAD37070BDC4F10C045C
:10060000C4F1200500FA04F320FA05F001FA04F21F
:1006100040EA020001F0004110EBD37041F100010B
:100620005EEA430E08BF20EAD37070BDC4F1200516
:1006300000FA05F24EEA020E20FA04F301FA05F27E
:1006400043EA020321FA04F001F0004121FA04F226
:1006500020EA020000EBD3705EEA430E08BF20EAF6
:10066000D37070BD94F0000F0FD101F00046400030
:1006700041EB010111F4801F08BF013CF7D041EAB2
:10068000060195F0000F18BF704703F000465200B6
:1006900043EB030313F4801F08BF013DF7D043EA87
:1006A0000603704794EA0C0F0CEA135518BF95EA3D
:1006B0000C0F0CD050EA410618BF52EA4306D1D1C4
:1006C00081EA030101F000414FF0000070BD50EAE3
:1006D000410606BF1046194652EA430619D094EA6D
:1006E0000C0F02D150EA013613D195EA0C0F05D157
:1006F00052EA03361CBF104619460AD181EA0301AB
:1007000001F0004141F0FE4141F470014FF0000062
:1007100070BD41F0FE4141F4780170BD70B54FF0FD
:10072000FF0C4CF4E06C1CEA11541DBF1CEA13557D
:1007300094EA0C0F95EA0C0F00F0A7F8A4EB05045F
:1007400081EA030E52EA03354FEA013100F0888056
:100750004FEA03334FF0805545EA131343EA12631F
:100760004FEA022245EA111545EA10654FEA0026D4
:100770000EF000419D4208BF964244F1FD0404F58D
:10078000407402D25B084FEA3202B61A65EB0305E9
:100790005B084FEA32024FF480104FF4002CB6EBA6
:1007A000020E75EB030E22BFB61A754640EA0C0026
:1007B0005B084FEA3202B6EB020E75EB030E22BF66
:1007C000B61A754640EA5C005B084FEA3202B6EBA7
:1007D000020E75EB030E22BFB61A754640EA9C0066
:1007E0005B084FEA3202B6EB020E75EB030E22BF36
:1007F000B61A754640EADC0055EA060E18D04FEAF4
:10080000051545EA16754FEA06164FEAC30343EA93
:1008100052734FEAC2025FEA1C1CC0D111F4801F60
:100820000BD141EA00014FF000004FF0004CB6E759
:1008300011F4801F04BF01430020B4F1FD0C88BFF8
:10084000BCF5E06F3FF6AFAEB5EB030C04BFB6EB03
:10085000020C5FEA500C50F1000041EB045170BDF6
:100860000EF0004E4EEA113114EB5C04C2BFD4EB23
:100870000C0541EA045170BD41F480114FF0000EA7
:10088000013C90E645EA060E8DE60CEA135594EA23
:100890000C0F08BF95EA0C0F3FF43BAF94EA0C0F26
:1008A0000AD150EA01347FF434AF95EA0C0F7FF49B
:1008B00025AF104619462CE795EA0C0F06D152EAEF
:1008C00003353FF4FDAE1046194622E750EA4106D3
:1008D00018BF52EA43067FF4C5AE50EA41047FF4E4
:1008E0000DAF52EA43057FF4EBAE12E74FF0FF3C49
:1008F00006E000BF4FF0010C02E000BF4FF0010C1A
:100900004DF804CD4FEA410C7FEA6C5C4FEA430C92
:1009100018BF7FEA6C5C1BD001B050EA410C0CBFE1
:1009200052EA430C91EA030F02BF90EA020F002043
:10093000704710F1000F91EA030F58BF994208BFAA
:1009400090422CBFD8176FEAE37040F00100704767
:100950004FEA410C7FEA6C5C02D150EA013C07D1BE
:100960004FEA430C7FEA6C5CD6D152EA033CD3D009
:100970005DF8040B704700BF8446104662468C4603
:100980001946634600E000BF01B5FFF7B7FF002836
:1009900048BF10F1000F01BD4DF808EDFFF7F4FF5F
:1009A0000CBF012000205DF808FB00BF4DF808EDEA
:1009B000FFF7EAFF34BF012000205DF808FB00BF0D
:1009C0004DF808EDFFF7E0FF94BF012000205DF82F
:1009D00008FB00BF4DF808EDFFF7CEFF94BF0120E4
:1009E00000205DF808FB00BF4DF808EDFFF7C4FFDD
:1009F00034BF012000205DF808FB00BF4A0011D27F
:100A000012F5001211D20DD56FF47873B3EB625268
:100A10000ED44FEAC12343F0004343EA505323FA74
:100A200002F070474FF00000704750EA013002D1E9
:100A30004FF0FF3070474FF00000704710B504468C
:100A40000E4B18784FF47A73B3FBF0F30C4A10682E
:100A5000B0FBF3F000F08CF868B90F2C01D901203D
:100A60000AE0002221464FF0FF3000F041F8034B2E
:100A70005C60002000E0012010BD00BF00000020ED
:100A80000800002008B5074A136843F010031360FC
:100A9000032000F01BF80020FFF7D0FF01F0ECFF6F
:100AA000002008BD00200240034A1168034B1B7858
:100AB0000B441360704700BF280000200000002096
:100AC000014B1868704700BF28000020074AD36810
:100AD00023F4E0631B041B0C000200F4E0601843E5
:100AE00040F0BF6040F40030D060704700ED00E09F
:100AF00030B4174BDB68C3F30223C3F10704042CA3
:100B000028BF04241D1D062D18D9033B4FF0FF35C7
:100B100005FA04F421EA0401994005FA03F322EAF4
:100B20000303194300280BDB0901C9B200F160403F
:100B300000F5614080F8001330BC70470023E5E702
:100B400000F00F000901C9B2024B1954F4E700BFCD
:100B500000ED00E014ED00E000F01F024009012369
:100B60009340024A42F82030704700BF00E100E0A5
:100B70000138B0F1807F0AD2064B5860064AF02156
:100B800082F823100020986007221A607047012025
:100B9000704700BF10E000E000ED00E0042805D041
:100BA000054A136823F0040313607047024A136870
:100BB00043F004031360704710E000E0704708B58D
:100BC000FFF7FCFF08BD70B4066CC56B0124B44090
:100BD0006C60046863604368102B05D003689960FB
:100BE0000368DA6070BC704703689A600368D96074
:100BF000F8E70000002830D010B403460168184A16
:100C00000A441848A0FB0202120992001A64164A0C
:100C1000DA63022283F82120086820F47F5020F054
:100C200030005A689C682243DC6822431C692243D6
:100C30005C6922439C692243DC69224302430A60C7
:100C400000209862D862186358639863012283F881
:100C5000212083F8200010BC70470120704700BF9E
:100C6000F8FFFDBFCDCCCCCC0000024038B590F8E9
:100C70002040012C32D0012480F8204090F82140FF
:100C8000012C04D0002380F82030022038BD044617
:100C9000022084F821000020A0632568286820F045
:100CA000010028602046FFF78EFFE36A5BB12268EF
:100CB000136843F00E0313602268136843F00103C6
:100CC00013600020E2E72268136823F00403136036
:100CD0002268136843F00A031360EDE70220D5E7AA
:100CE00038B5C36B1A6804682568016C04238B400F
:100CF000134235D015F0040F32D0236813F0200FC3
:100D000003D1236823F0040323600368434A93421A
:100D100014D01432934218D01432934217D01432A4
:100D2000934217D01432934217D01432934202D018
:100D30004FF0806203E04FF4800200E00422384B61
:100D40005A60C36A03B1984738BD4022F7E74FF4B1
:100D50008062F4E74FF48042F1E74FF48022EEE73F
:100D600002238B4013423CD015F0020F39D0236888
:100D700013F0200F06D1236823F00A032360012318
:100D800080F821300368254A934214D014329342EC
:100D90001CD0143293421BD0143293421BD0143215
:100DA00093421BD01432934202D04FF0007203E002
:100DB0004FF4001200E00222194B5A60002380F821
:100DC0002030836A002BBFD09847BDE72022F3E78D
:100DD0004FF40072F0E74FF40052EDE74FF40032A9
:100DE000EAE7082303FA01F11142ADD015F0080F2C
:100DF000AAD0236823F00E032360026CC16B012389
:100E000003FA02F24A60836380F82130002380F8FD
:100E10002030036B002B97D0984795E708000240DD
:100E200000000240F0B482B000263546A1E0002C5C
:100E300059D0012C00D1CE68FF2B68D88446FF2BF7
:100E400068D8AC00DCF800200F27A74022EA070290
:100E500006FA04F42243CCF800204A6812F0805FBE
:100E600000F086805E4A946944F0010494619269BE
:100E700002F001020192019AAC08A71C594A52F8EB
:100E8000272005F00307BF004FF00F0C0CFA07FCFA
:100E900022EA0C0C544A904242D002F58062904201
:100EA0007FD002F5806290427DD002F58062904250
:100EB00034D0042235E04D4FBC4214D00BD94C4FF6
:100EC000BC4210D007F58037BC420CD0A7F5801784
:100ED000BC42B1D107E0A7F58017BC4203D007F5AB
:100EE0008037BC42A8D18C687CB1012C08D042610B
:100EF0000826A1E7CE6808369EE7CE680C369BE749
:100F00000261082698E7002696E7042694E700F198
:100F1000040C94E7A5F10804A40093E7032200E081
:100F20000022BA4042EA0C0202342E4F47F8242035
:100F30004A6812F4803F38D02E4C22681A4322604F
:100F40004A6812F4003F36D02A4C62681A43626045
:100F50004A6812F4801F34D0264CA2681A43A2605B
:100F60004A6812F4001F32D0224CE2681343E36057
:100F700001350F2D31D80122AA400B6813409A4247
:100F8000F6D14C68122CB8D095D8022CB2D07FF68E
:100F90004EAF032CB7D0112C7FF44EAFCE68043681
:100FA0004AE70122BDE70222BBE7124C226822EA8F
:100FB00003022260C4E70F4C626822EA0302626007
:100FC000C6E70C4CA26822EA0302A260C8E7094CFB
:100FD000E26822EA0303E360CAE702B0F0BC7047AC
:100FE00000100240000001400008014000002110F4
:100FF000000031100004014082B0084B1B68084A11
:10100000A2FB03235B0A00FB03F0019000BF019BDE
:101010005A1E0192002BF9D102B07047080000203F
:10102000D34D621070B582B00446036813F0010F0F
:101030002CD0AB4B5B6803F00C03042B1DD0A84BEA
:101040005B6803F00C03082B12D06368B3F5803F94
:1010500041D0002B55D103F1804303F504331A68C6
:1010600022F480321A601A6822F480221A6037E073
:101070009B4B5B6813F4803FE7D0994B1B6813F4DC
:10108000003F03D06368002B00F0AE81236813F0AB
:10109000020F76D0924B5B6813F00C0F5FD0904B31
:1010A0005B6803F00C03082B54D02369002B00F07D
:1010B0008A808C4B01221A60FFF702FD0546884B9F
:1010C0001B6813F0020F75D1FFF7FAFC401B0228D2
:1010D000F5D903208BE1824A136843F4803313600F
:1010E000636843B3FFF7ECFC05467D4B1B6813F4C4
:1010F000003FCBD1FFF7E4FC401B6428F5D9032067
:1011000075E1B3F5A02F09D0754B1A6822F480322F
:101110001A601A6822F480221A60E1E703F1804322
:10112000A3F53C331A6842F480221A601A6842F42C
:1011300080321A60D4E7FFF7C3FC0546684B1B6892
:1011400013F4003FA2D0FFF7BBFC401B6428F5D985
:1011500003204CE1624B5B6813F4803FA5D1604BE8
:101160001B6813F0020F04D02369012B01D001206A
:101170003DE15B4A136823F0F803616943EAC10368
:101180001360236813F0080F32D0A369002B5BD0E3
:10119000554B01221A60FFF793FC0546504B5B6AE2
:1011A00013F0020F21D1FFF78BFC401B0228F5D969
:1011B00003201CE14A4A136823F0F803616943EAFB
:1011C000C1031360DDE7474B00221A60FFF778FC8C
:1011D0000546434B1B6813F0020FD2D0FFF770FC9B
:1011E000401B0228F5D9032001E10120FFF704FF8D
:1011F000236813F0040F00F09780394BDB6913F07C
:10120000805F33D1364BDA6942F08052DA61DB69B4
:1012100003F080530193019B0125344B1B6813F4A9
:10122000807F25D0E368012B36D0002B4CD103F111
:10123000804303F504331A6A22F001021A621A6A23
:1012400022F004021A622CE0274B00221A60FFF7FA
:1012500037FC0546224B5B6A13F0020FC8D0FFF73C
:101260002FFC401B0228F5D90320C0E00025D4E75D
:101270001E4A136843F480731360FFF721FC06468F
:101280001A4B1B6813F4807FCCD1FFF719FC801B2D
:101290006428F5D90320AAE0114A136A43F0010338
:1012A0001362E36873B3FFF70BFC06460C4B1B6A33
:1012B00013F0020F37D1FFF703FC801B41F2883394
:1012C0009842F3D9032092E0052B11D0044B1A6AFF
:1012D00022F001021A621A6A22F004021A62E0E79E
:1012E0000010024000004242800442420070004070
:1012F000414B1A6A42F004021A621A6A42F0010271
:101300001A62CEE7FFF7DCFB06463B4B1B6A13F085
:10131000020F08D0FFF7D4FB801B41F288339842BC
:10132000F3D9032063E0E5B9E369002B5ED0324ACC
:10133000526802F00C02082A5BD0022B17D02F4B08
:1013400000221A60FFF7BCFB04462B4B1B6813F00E
:10135000007F47D0FFF7B4FB001B0228F5D903201C
:1013600045E0254AD36923F08053D361DCE7234B62
:1013700000221A60FFF7A4FB05461F4B1B6813F001
:10138000007F06D0FFF79CFB401B0228F5D9032005
:101390002DE0236AB3F5803F1AD017494B6823F438
:1013A0007413226A606A024313434B60134B012299
:1013B0001A60FFF785FB04460F4B1B6813F0007F94
:1013C0000ED1FFF77DFB001B0228F5D903200EE0AC
:1013D000094A536823F40033A1680B435360DCE7E8
:1013E000002004E0002002E0012000E0002002B024
:1013F00070BD0120FBE700BF0010024060004242C8
:1014000010B487B0164C94E80F000DF1180C0CE9DD
:101410000F00238AADF80430124B5B6803F00C0216
:10142000082A1AD1C3F38342624412F8102C13F431
:10143000803F05D10C4800FB02F007B010BC70479C
:10144000084B5B68C3F34043634413F8143C0748FC
:1014500000FB02F0B0FBF3F0EFE70448EDE700BF5C
:10146000E02C00080010024000093D0000127A0044
:10147000594B1B6803F007038B420CD2564A136882
:1014800023F007030B431360136803F007038B4239
:1014900001D00120704770B5036813F0020F06D029
:1014A0004E4A536823F0F0038468234353600C468C
:1014B0000546036813F0010F52D04368012B23D077
:1014C000022B28D0454A126812F0020F00F08280E9
:1014D00042494A6822F0030213434B60FFF7F0FAD7
:1014E00006466B68012B1DD0022B2AD03B4B5B6854
:1014F00013F00C0F34D0FFF7E3FA801B41F288336E
:101500009842F3D9032064E0344A126812F4003F91
:10151000DED101205DE0314A126812F0007FD7D1A0
:10152000012056E02D4B5B6803F00C03042B17D011
:10153000FFF7C6FA801B41F288339842F2D90320A4
:1015400047E0264B5B6803F00C03082B08D0FFF73D
:10155000B7FA801B41F288339842F2D9032038E071
:101560001D4B1B6803F00703A3420CD91A4A1368EA
:1015700023F0070323431360136803F00703A34218
:1015800001D0012025E02B6813F0040F06D0134A88
:10159000536823F4E063E9680B4353602B6813F04E
:1015A000080F07D00D4A536823F46053296943EAB2
:1015B000C1035360FFF724FF084B5B68C3F30313B9
:1015C000074AD35CD840074B18600020FFF736FA73
:1015D000002070BD0120FCE7002002400010024006
:1015E000F42C000808000020014B1868704700BF69
:1015F0000800002070B4036A23F001030362036A49
:101600004268846924F073040D6845EA040623F0F7
:1016100002048B6823430D4DA84209D00B4DA8420C
:101620000DD0426086614A684263036270BC7047B5
:1016300023F00803CC68234323F00403EEE722F4ED
:1016400040724C6914438A692243EAE7002C014046
:1016500030B4036A23F480730362036A4268C46986
:1016600024F073040D682C4323F400738D6843EA5F
:1016700005230F4DA84209D00D4DA8420ED042605F
:10168000C4614A68C263036230BC704723F40063DC
:10169000CD6843EA052323F48063EDE722F440524A
:1016A0004D6942EA05128D6942EA0512E7E700BF7B
:1016B000002C014030B4036A23F480530362036AB0
:1016C0004468C26922F4E6420D6842EA052223F426
:1016D00000538D6843EA0533074DA84206D04460A5
:1016E000C2614A680264036230BC704724F48044DB
:1016F0004D6944EA8514F2E7002C0140704710B5AB
:10170000446A012384F83D30636A83420BD0A36AA4
:10171000834210D0E36A834210D0236B834204D10A
:101720000823237701E0012323772046FFF7E6FF14
:101730000023237710BD02232377F6E704232377C2
:10174000F3E7704708B5406A012380F83D30FFF7A2
:10175000F8FF08BD03681B4A90420AD0B0F1804FE1
:1017600007D0A2F59432904203D002F580629042F5
:1017700003D123F070034A681343124A90420AD0FF
:10178000B0F1804F07D0A2F59432904203D002F519
:101790008062904203D123F44073CA68134323F05C
:1017A00080034A69134303608B68C3620B688362DA
:1017B000044B984202D00123436170470B690363D5
:1017C000F9E700BF002C0140A8B110B5044690F81D
:1017D0003D305BB1022384F83D30211D2068FFF7C6
:1017E000B9FF012384F83D30002010BD80F83C3063
:1017F00001F092F9EEE701207047000030B4036A6F
:1018000023F010030362036A4468826922F4E6420B
:101810000D6842EA052223F020038D6843EA051390
:101820000E4DA84209D00D4DA8420ED044608261F1
:101830004A688263036230BC704723F08003CD683E
:1018400043EA051323F04003EDE724F440644D69B7
:1018500044EA85048D6944EA8504E7E7002C0140E9
:1018600038B590F83C30012B66D00D460446012374
:1018700080F83C30022380F83D300C2A1AD8DFE88B
:1018800002F00719191920191919341919194700E3
:101890000068FFF7AFFE2268936943F00803936185
:1018A0002268936923F0040393612268936929698C
:1018B0000B439361012384F83D30002084F83C0001
:1018C00038BD0068FFF79AFF2268936943F400630C
:1018D00093612268936923F480639361226893691A
:1018E000296943EA01239361E4E70068FFF7B0FE4A
:1018F0002268D36943F00803D3612268D36923F0D7
:101900000403D3612268D36929690B43D361D1E70A
:101910000068FFF7CFFE2268D36943F40063D36108
:101920002268D36923F48063D3612268D36929696B
:1019300043EA0123D361BDE70220C1E710B40123CC
:1019400003FA01F4036A23EA04030362036A8A4088
:101950001343036210BC704770B590F83D60F6B257
:10196000022E77D090F83D40E4B2012C0DD01646FF
:101970000D4604460C2922D8DFE801F01021212170
:10198000312121214321212155001AB1022480F85F
:101990003D40ECE7002BF9D001201FE0426A2E49C0
:1019A0009162426A2D491163026834323146406ABD
:1019B000FFF75CF92268D36843F40073D360012217
:1019C00029462068FFF7BAFF2368254A93423CD096
:1019D0002268136843F001031360002070BD826A1F
:1019E0001D499162826A1D4911630268383231468D
:1019F000806AFFF73BF92268D36843F48063D360C1
:101A0000DDE7C26A14499162C26A1449116302682F
:101A10003C323146C06AFFF729F92268D36843F4A3
:101A20000063D360CBE7026B0B499162026B0B49F9
:101A30001163026840323146006BFFF717F92268E4
:101A4000D36843F48053D360B9E75A6C42F4004240
:101A50005A64BDE70220C1E7FF16000845170008D9
:101A6000002C014090F83C30012B22D030B40122F0
:101A700080F83C20022380F83D300468636823F03E
:101A800070036360046863680D682B4363600468D7
:101A9000A36823F08003A3600468A36849680B432C
:101AA000A36080F83D20002380F83C30184630BC0D
:101AB00070470220704700000F2800F2F78070B4D2
:101AC00000EB4000C400A0B200F5FA7080B212F042
:101AD000010F00F0BB800826C41D754D2E5512F075
:101AE000020F00F0B5800826841D714D2E5512F0AE
:101AF000040F00F0AF800826441D6D4D2E5512F0E6
:101B0000080F00F0A9800826041D694D2E5512F01B
:101B1000100F00F0A3800826C41C654D2E5512F04E
:101B2000200F00F09D800826841C614D2E5512F078
:101B3000400F00F097800826441C5D4D2E55D209B9
:101B400000F0928008245A4A145411F0010F00F05A
:101B50008D80082500F10F02554CA55411F0020F9D
:101B600000F08680082500F10E02514CA55411F0BA
:101B7000040F7FD0082500F10D024D4CA55411F043
:101B8000080F79D0082500F10C02494CA55411F03A
:101B9000100F73D0082500F10B02454CA55411F02D
:101BA000200F6DD0082500F10A02414CA55411F018
:101BB000400F67D0082500F109023D4CA554CA0921
:101BC00062D0082400F1080239498C5413F0010F47
:101BD0005CD0082400F1170235498C5413F0020F31
:101BE00056D0082400F1160231498C5413F0040F2A
:101BF00050D0082400F115022D498C5413F0080F21
:101C00004AD0082400F1140229498C5413F0100F13
:101C100044D0082400F1130225498C5413F0200FFE
:101C20003ED0082400F1120221498C5413F0400FD9
:101C300038D0082400F111021D498C54DB0933D03F
:101C4000082210301A4B1A5470BC7047042643E720
:101C5000042649E704264FE7042655E704265BE7F8
:101C6000042661E7042667E704246CE7042571E78E
:101C7000042578E704257EE7042584E704258AE720
:101C8000042590E7042596E704249BE70424A1E7B4
:101C90000424A7E70424ADE70424B3E70424B9E748
:101CA0000424BFE70424C5E70422CAE7704700BF45
:101CB0002C0000200F2857D810B400EB4000C300C0
:101CC0009BB203F5FA739BB211F0010F3CD00824CC
:101CD00003F10F022548845411F0020F36D0082476
:101CE00003F10E022148845411F0040F30D008246F
:101CF00003F10D021D48845411F0080F2AD0082466
:101D000003F10C021948845411F0100F24D0082458
:101D100003F10B021548845411F0200F1ED0082443
:101D200003F10A021148845411F0400F18D008241E
:101D300003F109020D488454CA0913D0082108335D
:101D40000A4AD15410BC70470424C1E70424C7E7F1
:101D50000424CDE70424D3E70424D9E70424DFE7EF
:101D60000424E5E70421EAE7704700BF2C000020C7
:101D70000F284FD810B400EB4000C3009BB203F50E
:101D8000FA739BB211F0010F34D00824DA1D2248F7
:101D9000845411F0020F2FD008249A1D1E48845439
:101DA00011F0040F2AD008245A1D1B48845411F046
:101DB000080F25D008241A1D1748845411F0100F5D
:101DC00020D00824DA1C1448845411F0200F1BD0B2
:101DD00008249A1C1048845411F0400F16D008248F
:101DE0005A1C0D488454CA0912D008210A4AD154F9
:101DF00010BC70470424C9E70424CEE70424D3E7C9
:101E00000424D8E70424DDE70424E2E70424E7E718
:101E10000421EBE7704700BF2C0000200F2857D8A3
:101E200010B400EB4000C3009BB203F5FA739BB201
:101E300011F0010F3CD0082403F117022548845407
:101E400011F0020F36D0082403F116022148845401
:101E500011F0040F30D0082403F115021D488454FA
:101E600011F0080F2AD0082403F1140219488454F1
:101E700011F0100F24D0082403F1130215488454E4
:101E800011F0200F1ED0082403F1120211488454CF
:101E900011F0400F18D0082403F111020D488454AA
:101EA000CA0913D0082110330A4AD15410BC704714
:101EB0000424C1E70424C7E70424CDE70424D3E7BE
:101EC0000424D9E70424DFE70424E5E70421EAE752
:101ED000704700BF2C00002010B5002431E0002323
:101EE0001A46FF212046FFF7E7FD601C00237D22F4
:101EF000FF2180B2FFF7E0FDA01C0023FF22114666
:101F000080B2FFF7D9FDE01C0023FF22194680B202
:101F1000FFF7D2FD201DFF231A46002180B2FFF7F4
:101F2000CBFD601DFF230022114680B2FFF7C4FDE8
:101F3000A01DFF230022194680B2FFF7BDFD073424
:101F4000A4B20F2CCBD910BD10B5002406E000239D
:101F50001A461946A0B2FFF7AFFD01340F2CF6DD8B
:101F600010BD000010B5FFF7EFFF002416E04FF49E
:101F70007A7202FB04F20D4981FB0231D317C3EBE5
:101F8000E103C3EB03230A4981FB0321DB17C3EB06
:101F9000A111C9B2A0B2FFF741FF0134132CE6DD55
:101FA000FF21A0B2FFF786FE10BD00BF6766666620
:101FB000D34D62100A4B93F873030023B3F5C07F2F
:101FC0000CDA10B403F5FA7205498C5C88540133BD
:101FD0002046B3F5C07FF5DB10BC7047704700BFEB
:101FE0002C00002000EB4000C3009BB203F5FA7305
:101FF0009BB203F1080227498A5C082A3ED00020E0
:1020000003F1090223498A5C082A39D000221044CE
:10201000C2B203F10A011F48415C082932D00020F6
:102020001044C0B203F10B021A498A5C082A2BD073
:1020300000220244D0B203F10C0216498A5C082A3D
:1020400000D000220244D2B203F10D011148415CDC
:1020500008291BD000200244D2B203F10E010D4822
:10206000415C082914D000201044C0B20F33094A43
:10207000D35C082B08BF0130C0B270478020BFE797
:102080004022C4E72020CBE71022D2E70420E2E779
:102090000220E9E72C00002000EB4000C3009BB2C7
:1020A00003F5FA739BB203F1100227498A5C082AF0
:1020B0003ED0002003F1110223498A5C082A39D05E
:1020C00000221044C2B203F112011F48415C0829EA
:1020D00032D000201044C0B203F113021A498A5CC6
:1020E000082A2BD000220244D0B203F11402164970
:1020F0008A5C082A00D000220244D2B203F1150102
:102100001148415C08291BD000200244D2B203F1DF
:1021100016010D48415C082914D000201044C0B2BB
:102120001733094AD35C082B08BF0130C0B270478F
:102130008020BFE74022C4E72020CBE71022D2E76F
:102140000420E2E70220E9E72C00002000EB400039
:10215000C3009BB203F5FA739BB2244AD25C082AEF
:1021600038D000205A1C21498A5C082A34D0002229
:102170001044C2B2991C1D48415C08292ED0002091
:102180001044C0B2DA1C19498A5C082A28D00022FF
:102190000244D0B21A1D15498A5C082A00D00022D8
:1021A0000244D2B2591D1148415C08291AD00020BE
:1021B0000244D2B2991D0D48415C082914D0002078
:1021C0001044C0B20733094AD35C082B08BF013062
:1021D000C0B270478020C5E74022C9E72020CFE782
:1021E0001022D5E70420E3E70220E9E72C000020D5
:1021F0002DE9F04F89B00546904699460022A24B42
:1022000040464946FEF7DCFB002800F086810022AC
:10221000002340464946FEF7DDFB002800F07D81A3
:102220002846FFF793FFFEF7D5F882468B46CDE9A7
:1022300002AB2846FFF7D6FEFEF7CCF806460F465F
:10224000CDE904672846FFF727FFFEF7C3F8CDE97D
:10225000000132463B4650465946FEF7C5FB08B9D9
:10226000DDE90267DDE900AB52465B4630463946A0
:10227000FEF79CFB08B956465F46DDE904AB5246C3
:102280005B46DDE90201FEF791FB08B9DDE902AB2F
:10229000DDE9002350465946FEF7A6FB08B9DDE903
:1022A00000AB32463B4650465946FDF755FFCDE957
:1022B000060100220023FEF76FFB002866D1DDE94E
:1022C000042350465946FEF767FB00282CD0DDE971
:1022D0000023DDE90201FEF77DFB80B1DDE900238B
:1022E000DDE90201FDF738FFDDE90623FEF716FA06
:1022F0000022664BFEF7E8F8CDE906014AE0DDE989
:102300000023DDE90201FDF727FFDDE90623FEF7E3
:1023100005FA00225E4BFDF721FF00225B4BFEF722
:10232000D3F8CDE9060135E0DDE9022350465946F0
:10233000FEF732FBA8B1DDE90423DDE90001FDF77A
:102340000BFFDDE90623FEF7E9F900224FF0804399
:10235000FDF704FF00224D4BFEF7B6F8CDE906016C
:1023600018E0DDE90223DDE90401FDF7F5FEDDE912
:102370000623FEF7D3F90022464BFDF7EFFE0022BD
:10238000424BFEF7A1F8CDE9060103E0002300244B
:10239000CDE906340022002350465946FEF7FCFAE8
:1023A00090B952465B4630463946FEF7B7F90246C9
:1023B0000B4600203849FDF7CFFE0022324BFEF7D6
:1023C00083F806460F4601E00026002700222F4B27
:1023D000DDE90601FEF7A2F9FEF710FBC0B22F4BB4
:1023E000A3FB00239B0803EB43035C00001BC4B268
:1023F00032463B4600202449FDF7AEFE42464B469E
:10240000FEF762F80022204BFEF788F982468B46E1
:1024100002460B4640464946FDF79EFE06460F46DD
:10242000DDE90601FEF7EAFA80B21D4BA3FB0023AB
:102430005B09C3EB03139A00801A80B2FDF7DAFF41
:1024400032463B46FEF740F80022104BFEF766F995
:1024500006460F4602460B4650465946FDF77EFE9D
:10246000CDE9060132463B4640464946FDF774FE3B
:1024700006460F46052C3CD8DFE814F01400520045
:102480007800A000C800F0000000594000004E4055
:1024900000001840000010400000F03FABAAAAAABC
:1024A0008988888882A3D3E9002340464946FEF7FD
:1024B0000BF80022804BFEF731F9CDE904017CA333
:1024C000D3E90023DDE90601FDF7FEFF00227A4B88
:1024D000FEF724F9CDE9020175A3D3E900235046A4
:1024E0005946FDF7F1FF0022734BFEF717F9CDE9CE
:1024F0000001DDE90001FEF781FAC6B2DDE9020163
:10250000FEF77CFAC4B2DDE90401FEF777FA334640
:102510002246C1B2A8B2FFF7CFFA09B0BDE8F08FEA
:1025200063A3D3E90023FDF7CFFF0022624BFEF740
:10253000F5F8CDE904015EA3D3E9002340464946FE
:10254000FDF7C2FF00225C4BFEF7E8F8CDE902017F
:1025500057A3D3E9002350465946FDF7B5FF0022A3
:10256000554BFEF7DBF8CDE90001C2E750A3D3E9F4
:10257000002350465946FDF7A7FF00224E4BFEF7B9
:10258000CDF8CDE904014AA3D3E9002340464946EA
:10259000FDF79AFF0022484BFEF7C0F8CDE9020193
:1025A00043A3D3E90023DDE90601FDF78DFF0022F7
:1025B000414BFEF7B3F8CDE900019AE73CA3D3E91C
:1025C000002350465946FDF77FFF00223A4BFEF7A5
:1025D000A5F8CDE9040136A3D3E9002330463946F6
:1025E000FDF772FF0022344BFEF798F8CDE90201A7
:1025F0002FA3D3E9002340464946FDF765FF00229B
:102600002D4BFEF78BF8CDE9000172E728A3D3E943
:102610000023DDE90601FDF757FF0022264BFEF7F8
:102620007DF8CDE9040122A3D3E9002350465946A1
:10263000FDF74AFF0022204BFEF770F8CDE90201BA
:102640001BA3D3E9002340464946FDF73DFF002286
:10265000194BFEF763F8CDE900014AE714A3D3E96B
:10266000002340464946FDF72FFF0022124BFEF79C
:1026700055F8CDE904010EA3D3E90023504659468D
:10268000FDF722FF00220C4BFEF748F8CDE90201CE
:1026900007A3D3E9002330463946FDF715FF002292
:1026A000054BFEF73BF8CDE9000122E7AFF30080D0
:1026B0000000000000E06F400000594084B00F4B64
:1026C0009A6942F020029A619A6902F0200201920E
:1026D000019A9A6942F004029A619A6902F004022E
:1026E0000292029A9A6942F008029A619B6903F089
:1026F00008030393039B04B0704700BF001002401F
:1027000000B583B00A4B5A6942F001025A615B6915
:1027100003F001030193019B002211460B20FEF7F9
:10272000E7F90B20FEF718FA03B05DF804FB00BFD1
:1027300000100240064A136843F080731360054B93
:1027400000221A60044A136843F0010313607047C3
:10275000FCED00E0041000E0001000E0074B5A68B8
:10276000074B1B680749A1FB03139B0C00FB03F0FD
:10277000024B5B689B1A9842FAD87047001000E041
:102780000800002083DE1B43FEE7000000B58BB08D
:102790001A481B4B036007234360002383600C220D
:1027A000C26003618361FFF70FF8C0B9002308938B
:1027B000099308A91148FFF755F9A8B960230193B7
:1027C000002202920392059201A90C48FFF748F8F3
:1027D00078B90A4800F0DAF90BB05DF804FB40F272
:1027E0003F110848FFF7D0FF4FF4A3710548FFF7EA
:1027F000CBFF4FF4A8710348FFF7C6FFA0030020EA
:10280000000800400C2D000800B591B0012206928E
:102810004FF480330793002108910A9202220D920F
:102820000E934FF4E0130F9306A8FEF7FBFB08BBD3
:102830000F23019302210291002303934FF480623E
:102840000492059301A8FEF713FEC0B9FEF7CCFE73
:102850000D4BA3FB00308009FEF78AF90420FEF738
:102860009DF9002211464FF0FF30FEF741F911B0FB
:102870005DF804FB4FF489710448FFF785FF40F2CF
:102880001F110248FFF780FFD34D62100C2D000886
:1028900070B5FEF7F7F8FFF7B7FFFFF70FFFFFF789
:1028A0002FFFFFF773FFFFF745FF4FF45D736C4A8F
:1028B00000216C48FFF750F80126BDE0FFF70CFB44
:1028C000002509E0FFF776FB0134172CFADD4CF206
:1028D0005030FFF743FF01350F2D00F3A680002491
:1028E000F3E7FFF73FFB002509E0FFF763FB013447
:1028F000172CFADD4CF25030FFF730FF01350F2D69
:1029000000F393800024F3E7FFF71EFB01250BE0A3
:10291000E9B2A0B2FFF7CEF901340F2CF8DD41F295
:102920008830FFF71BFF0135FF2D01DC0024F4E7A1
:10293000FE250BE0E9B2A0B2FFF7BCF901340F2C81
:10294000F8DD41F28830FFF709FF013D002D6CDB17
:102950000024F4E7FFF7F8FA01250BE0E9B2A0B292
:10296000FFF75CFA01340F2CF8DD41F28830FFF7F5
:10297000F5FE0135FF2D01DC0024F4E7FE250BE018
:10298000E9B2A0B2FFF74AFA01340F2CF8DD41F2A8
:102990008830FFF7E3FE013D002D46DB0024F4E71D
:1029A000FFF7D2FA00250BE0E9B2A0B2FFF7E0F999
:1029B00001340F2CF8DD41F28830FFF7CFFE0135EE
:1029C000FF2D01DC0024F4E7FE250BE0E9B2A0B204
:1029D000FFF7CEF901340F2CF8DD41F28830FFF714
:1029E000BDFE013D002D20DB0024F4E7FFF774FA63
:1029F0001D48FFF7B3FE002405E000221B4B2046D4
:102A0000FFF7F6FB01340F2CF7DD1748FFF7A6FEA2
:102A1000002405E00022164B2046FFF7E9FB0134B5
:102A20000F2CF7DD1348FFF799FE062E16D001365E
:102A30004CF25030FFF792FE731E052BF5D801A221
:102A400052F823F0BD280008E328000809290008EF
:102A500055290008A1290008ED2900080126E7E70B
:102A60002C000020A003002020A107000000F03F60
:102A700000005940404B4C0000B583B0244B9A698C
:102A800042F001029A619A6902F001020092009AF2
:102A9000DA6942F08052DA61DB6903F08053019316
:102AA000019B0320FEF712F8002211466FF00B0085
:102AB000FEF71EF8002211466FF00A00FEF718F824
:102AC000002211466FF00900FEF712F800221146AD
:102AD0006FF00400FEF70CF8002211466FF00300BF
:102AE000FEF706F8002211466FF00100FEF700F82D
:102AF000002211464FF0FF30FDF7FAFF054A5368F8
:102B000023F0E06343F00073536003B05DF804FB0F
:102B100000100240000001400268184B9A4200D0A9
:102B2000704710B582B0044603F50233DA6942F00B
:102B30000402DA61DB6903F004030193019B10488E
:102B4000104B036010234360002383608022C26027
:102B50004FF4807202614361202383614FF440533C
:102B6000C361FEF747F820B9054B63625C6202B0AF
:102B700010BD6E210448FFF707FEF5E7000800408E
:102B8000E0030020080002401C2D00080268094BE9
:102B90009A4200D0704700B585B0402300930223CD
:102BA00001930323039369460348FEF73BF905B0FD
:102BB0005DF804FB00080040000C01407047FEE790
:102BC000FEE7FEE7FEE770477047704708B5FDF780
:102BD0006BFFFDF7F4FF08BD08B50248FEF780F86B
:102BE00008BD00BFE00300200F4B1A6842F001024D
:102BF0001A6059680D4A0A405A601A6822F08472B5
:102C000022F480321A601A6822F480221A605A680C
:102C100022F4FE025A604FF41F029A60044B4FF0F8
:102C200000629A60704700BF001002400000FFF889
:102C300000ED00E0002103E00B4B5B5843500431F2
:102C40000A480B4B42189A42F6D30A4A02E0002384
:102C500042F8043B084B9A42F9D3FFF7C5FF00F056
:102C60000FF8FFF715FE7047402D00080000002008
:102C70000C0000200C00002024040020FEE70000CF
:102C800070B500250C4E0D4CA41BA410A54209D113
:102C900000F01AF800250A4E0A4CA41BA410A54205
:102CA00005D170BD56F8253098470135EEE756F846
:102CB000253098470135F2E7382D0008382D0008F7
:102CC000382D00083C2D0008F8B500BFF8BC08BC42
:102CD0009E467047F8B500BFF8BC08BC9E467047DA
:102CE00002030405060708090A0B0C0D0E0F10104D
:102CF00001020000000000000000000001020304C7
:102D00000607080900000000010203042E2E2F53BD
:102D100072632F6D61696E2E630000002E2E2F539B
:102D200072632F73746D3332663178785F68616CCB
:082D30005F6D73702E6300005B
:042D38003501000859
:042D3C001101000879
:0C2D4000010000001000000000A24A0486
:0400000508002C358E
:00000001FF
